{
    "contractName": "ReflectToken",
    "abi": [
        {
            "inputs": [],
            "stateMutability": "nonpayable",
            "type": "constructor"
        },
        {
            "anonymous": false,
            "inputs": [
                {
                    "indexed": true,
                    "internalType": "address",
                    "name": "from",
                    "type": "address"
                },
                {
                    "indexed": true,
                    "internalType": "address",
                    "name": "to",
                    "type": "address"
                },
                {
                    "indexed": false,
                    "internalType": "uint256",
                    "name": "value",
                    "type": "uint256"
                }
            ],
            "name": "Transfer",
            "type": "event"
        },
        {
            "inputs": [
                {
                    "internalType": "address",
                    "name": "",
                    "type": "address"
                },
                {
                    "internalType": "address",
                    "name": "",
                    "type": "address"
                }
            ],
            "name": "allowance",
            "outputs": [
                {
                    "internalType": "uint256",
                    "name": "",
                    "type": "uint256"
                }
            ],
            "stateMutability": "view",
            "type": "function"
        },
        {
            "inputs": [
                {
                    "internalType": "address",
                    "name": "",
                    "type": "address"
                }
            ],
            "name": "balanceOf",
            "outputs": [
                {
                    "internalType": "uint256",
                    "name": "",
                    "type": "uint256"
                }
            ],
            "stateMutability": "view",
            "type": "function"
        },
        {
            "inputs": [],
            "name": "buyTaxRate",
            "outputs": [
                {
                    "internalType": "uint256",
                    "name": "",
                    "type": "uint256"
                }
            ],
            "stateMutability": "view",
            "type": "function"
        },
        {
            "inputs": [],
            "name": "decimals",
            "outputs": [
                {
                    "internalType": "uint8",
                    "name": "",
                    "type": "uint8"
                }
            ],
            "stateMutability": "view",
            "type": "function"
        },
        {
            "inputs": [],
            "name": "devRate",
            "outputs": [
                {
                    "internalType": "uint256",
                    "name": "",
                    "type": "uint256"
                }
            ],
            "stateMutability": "view",
            "type": "function"
        },
        {
            "inputs": [],
            "name": "devWallet",
            "outputs": [
                {
                    "internalType": "address",
                    "name": "",
                    "type": "address"
                }
            ],
            "stateMutability": "view",
            "type": "function"
        },
        {
            "inputs": [],
            "name": "getEthReflection",
            "outputs": [],
            "stateMutability": "nonpayable",
            "type": "function"
        },
        {
            "inputs": [],
            "name": "name",
            "outputs": [
                {
                    "internalType": "string",
                    "name": "",
                    "type": "string"
                }
            ],
            "stateMutability": "view",
            "type": "function"
        },
        {
            "inputs": [],
            "name": "reflectionRate",
            "outputs": [
                {
                    "internalType": "uint256",
                    "name": "",
                    "type": "uint256"
                }
            ],
            "stateMutability": "view",
            "type": "function"
        },
        {
            "inputs": [],
            "name": "sellTaxRate",
            "outputs": [
                {
                    "internalType": "uint256",
                    "name": "",
                    "type": "uint256"
                }
            ],
            "stateMutability": "view",
            "type": "function"
        },
        {
            "inputs": [
                {
                    "internalType": "address",
                    "name": "newDevWallet",
                    "type": "address"
                }
            ],
            "name": "setDevWallet",
            "outputs": [],
            "stateMutability": "nonpayable",
            "type": "function"
        },
        {
            "inputs": [],
            "name": "symbol",
            "outputs": [
                {
                    "internalType": "string",
                    "name": "",
                    "type": "string"
                }
            ],
            "stateMutability": "view",
            "type": "function"
        },
        {
            "inputs": [],
            "name": "totalSupply",
            "outputs": [
                {
                    "internalType": "uint256",
                    "name": "",
                    "type": "uint256"
                }
            ],
            "stateMutability": "view",
            "type": "function"
        },
        {
            "inputs": [
                {
                    "internalType": "address",
                    "name": "to",
                    "type": "address"
                },
                {
                    "internalType": "uint256",
                    "name": "value",
                    "type": "uint256"
                }
            ],
            "name": "transfer",
            "outputs": [
                {
                    "internalType": "bool",
                    "name": "success",
                    "type": "bool"
                }
            ],
            "stateMutability": "nonpayable",
            "type": "function"
        },
        {
            "inputs": [
                {
                    "internalType": "address",
                    "name": "from",
                    "type": "address"
                },
                {
                    "internalType": "address",
                    "name": "to",
                    "type": "address"
                },
                {
                    "internalType": "uint256",
                    "name": "value",
                    "type": "uint256"
                }
            ],
            "name": "transferFrom",
            "outputs": [
                {
                    "internalType": "bool",
                    "name": "success",
                    "type": "bool"
                }
            ],
            "stateMutability": "nonpayable",
            "type": "function"
        }
    ],
    "bytecode": "60c0604052600d60809081526c2932b33632b1ba102a37b5b2b760991b60a0526000906200002e90826200016c565b5060408051808201909152600381526214919560ea1b60208201526001906200005890826200016c565b506a52b7d2dcc80cd2e40000006002556003805460ff1916601217905561012c600681905560075560c860085560646009553480156200009757600080fd5b5060025433600081815260046020526040902091909155600a80546001600160a01b031916909117905562000238565b634e487b7160e01b600052604160045260246000fd5b600181811c90821680620000f257607f821691505b6020821081036200011357634e487b7160e01b600052602260045260246000fd5b50919050565b601f8211156200016757600081815260208120601f850160051c81016020861015620001425750805b601f850160051c820191505b8181101562000163578281556001016200014e565b5050505b505050565b81516001600160401b03811115620001885762000188620000c7565b620001a081620001998454620000dd565b8462000119565b602080601f831160018114620001d85760008415620001bf5750858301515b600019600386901b1c1916600185901b17855562000163565b600085815260208120601f198616915b828110156200020957888601518255948401946001909101908401620001e8565b5085821015620002285787850151600019600388901b60f8161c191681555b5050505050600190811b01905550565b610a7b80620002486000396000f3fe608060405234801561001057600080fd5b50600436106100f55760003560e01c8063542aa2291161009757806395d89b411161006657806395d89b41146101f4578063a9059cbb146101fc578063c95749751461020f578063dd62ed3e1461021857600080fd5b8063542aa22914610197578063691f224f146101a057806370a08231146101a95780638ea5220f146101c957600080fd5b80631f53ac02116100d35780631f53ac021461013957806323b872dd1461014c57806324024efd1461016f578063313ce5671461017857600080fd5b806306fdde03146100fa5780630a2ce8301461011857806318160ddd14610122575b600080fd5b610102610243565b60405161010f9190610859565b60405180910390f35b6101206102d1565b005b61012b60025481565b60405190815260200161010f565b6101206101473660046108ca565b6103c4565b61015f61015a3660046108ec565b61045e565b604051901515815260200161010f565b61012b60075481565b6003546101859060ff1681565b60405160ff909116815260200161010f565b61012b60085481565b61012b60065481565b61012b6101b73660046108ca565b60046020526000908152604090205481565b600a546101dc906001600160a01b031681565b6040516001600160a01b03909116815260200161010f565b6101026104ae565b61015f61020a366004610928565b6104bb565b61012b60095481565b61012b610226366004610952565b600560209081526000928352604080842090915290825290205481565b6000805461025090610985565b80601f016020809104026020016040519081016040528092919081815260200182805461027c90610985565b80156102c95780601f1061029e576101008083540402835291602001916102c9565b820191906000526020600020905b8154815290600101906020018083116102ac57829003601f168201915b505050505081565b33600090815260046020526040902054683635c9adc5dea00000111561033e5760405162461bcd60e51b815260206004820152601760248201527f4d696e696d756d2062616c616e6365206e6f74206d657400000000000000000060448201526064015b60405180910390fd5b60025460085433600090815260046020526040812054909291610360916109d5565b61036a91906109f4565b3360009081526004602052604081208054929350839290919061038e908490610a16565b9091555050604051339082156108fc029083906000818181858888f193505050501580156103c0573d6000803e3d6000fd5b5050565b600a546001600160a01b0316331461043c5760405162461bcd60e51b815260206004820152603560248201527f4f6e6c7920746865206465762077616c6c65742063616e206368616e676520746044820152746865206465762077616c6c6574206164647265737360581b6064820152608401610335565b600a80546001600160a01b0319166001600160a01b0392909216919091179055565b6001600160a01b0383166000908152600560209081526040808320338452909152812080548391908390610493908490610a16565b909155506104a490508484846104d1565b5060019392505050565b6001805461025090610985565b60006104c83384846104d1565b50600192915050565b6001600160a01b0383166105275760405162461bcd60e51b815260206004820152601e60248201527f5472616e736665722066726f6d20746865207a65726f206164647265737300006044820152606401610335565b6001600160a01b03821661057d5760405162461bcd60e51b815260206004820152601c60248201527f5472616e7366657220746f20746865207a65726f2061646472657373000000006044820152606401610335565b600081116105df5760405162461bcd60e51b815260206004820152602960248201527f5472616e7366657220616d6f756e74206d7573742062652067726561746572206044820152687468616e207a65726f60b81b6064820152608401610335565b6001600160a01b03831660009081526004602052604090205481111561063e5760405162461bcd60e51b8152602060048201526014602482015273496e73756666696369656e742062616c616e636560601b6044820152606401610335565b600080306001600160a01b038516036106be576127106006548461066291906109d5565b61066c91906109f4565b91506127106009548361067f91906109d5565b61068991906109f4565b600a546001600160a01b0316600090815260046020526040812080549091906106b3908490610a2d565b909155506107369050565b306001600160a01b0386160361073657612710600754846106df91906109d5565b6106e991906109f4565b9050612710600954826106fc91906109d5565b61070691906109f4565b600a546001600160a01b031660009081526004602052604081208054909190610730908490610a2d565b90915550505b6000612710600854838561074a9190610a2d565b61075491906109d5565b61075e91906109f4565b30600090815260046020526040812080549293508392909190610782908490610a2d565b90915550506001600160a01b038616600090815260046020526040812080548692906107af908490610a16565b90915550819050826107c18587610a16565b6107cb9190610a16565b6107d59190610a16565b6001600160a01b038616600090815260046020526040812080549091906107fd908490610a2d565b92505081905550846001600160a01b0316866001600160a01b03167fddf252ad1be2c89b69c2b068fc378daa952ba7f163c4a11628f55a4df523b3ef8660405161084991815260200190565b60405180910390a3505050505050565b600060208083528351808285015260005b818110156108865785810183015185820160400152820161086a565b81811115610898576000604083870101525b50601f01601f1916929092016040019392505050565b80356001600160a01b03811681146108c557600080fd5b919050565b6000602082840312156108dc57600080fd5b6108e5826108ae565b9392505050565b60008060006060848603121561090157600080fd5b61090a846108ae565b9250610918602085016108ae565b9150604084013590509250925092565b6000806040838503121561093b57600080fd5b610944836108ae565b946020939093013593505050565b6000806040838503121561096557600080fd5b61096e836108ae565b915061097c602084016108ae565b90509250929050565b600181811c9082168061099957607f821691505b6020821081036109b957634e487b7160e01b600052602260045260246000fd5b50919050565b634e487b7160e01b600052601160045260246000fd5b60008160001904831182151516156109ef576109ef6109bf565b500290565b600082610a1157634e487b7160e01b600052601260045260246000fd5b500490565b600082821015610a2857610a286109bf565b500390565b60008219821115610a4057610a406109bf565b50019056fea2646970667358221220034b05ab9eca1fe37ff5c09d641b7dfda32646c0c263cd7560d60d3a8cf8d3b864736f6c634300080f0033",
    "sourcePath": "/home/javad/Documents/crowdsale/contracts/Reflection.sol",
    "compiler": {
        "name": "solc",
        "version": "0.8.15+commit.e14f2714"
    },
    "functionHashes": {
        "allowance(address,address)": "dd62ed3e",
        "balanceOf(address)": "70a08231",
        "buyTaxRate()": "691f224f",
        "decimals()": "313ce567",
        "devRate()": "c9574975",
        "devWallet()": "8ea5220f",
        "getEthReflection()": "0a2ce830",
        "name()": "06fdde03",
        "reflectionRate()": "542aa229",
        "sellTaxRate()": "24024efd",
        "setDevWallet(address)": "1f53ac02",
        "symbol()": "95d89b41",
        "totalSupply()": "18160ddd",
        "transfer(address,uint256)": "a9059cbb",
        "transferFrom(address,address,uint256)": "23b872dd"
    },
    "gasEstimates": {
        "creation": {
            "codeDepositCost": "536600",
            "executionCost": "infinite",
            "totalCost": "infinite"
        },
        "external": {
            "allowance(address,address)": "infinite",
            "balanceOf(address)": "2586",
            "buyTaxRate()": "2340",
            "decimals()": "2402",
            "devRate()": "2361",
            "devWallet()": "2426",
            "getEthReflection()": "infinite",
            "name()": "infinite",
            "reflectionRate()": "2318",
            "sellTaxRate()": "2362",
            "setDevWallet(address)": "26734",
            "symbol()": "infinite",
            "totalSupply()": "2363",
            "transfer(address,uint256)": "infinite",
            "transferFrom(address,address,uint256)": "infinite"
        },
        "internal": {
            "_transfer(address,address,uint256)": "infinite"
        }
    }
}